{
  "contractName": "SimpleStorage",
  "abi": [
    {
      "inputs": [],
      "name": "storedData",
      "outputs": [
        {
          "internalType": "uint256",
          "name": "",
          "type": "uint256"
        }
      ],
      "stateMutability": "view",
      "type": "function"
    },
    {
      "inputs": [
        {
          "internalType": "uint256",
          "name": "x",
          "type": "uint256"
        }
      ],
      "name": "set",
      "outputs": [],
      "stateMutability": "nonpayable",
      "type": "function"
    }
  ],
  "bytecode": "0x608060405234801561001057600080fd5b50610133806100206000396000f3fe6080604052348015600f57600080fd5b506004361060325760003560e01c80632a1afcd914603757806360fe47b1146051575b600080fd5b603d6069565b604051604891906090565b60405180910390f35b606760048036038101906063919060d5565b606f565b005b60005481565b8060008190555050565b6000819050919050565b608a816079565b82525050565b600060208201905060a360008301846083565b92915050565b600080fd5b60b5816079565b811460bf57600080fd5b50565b60008135905060cf8160ae565b92915050565b60006020828403121560e85760e760a9565b5b600060f48482850160c2565b9150509291505056fea2646970667358221220cb381820fd0cacbf0afebc9344b4515e1265e76f44e1f857a319af119932ce5764736f6c63430008140033",
  "immutableReferences": {},
  "source": "// SPDX-License-Identifier: MIT\npragma solidity ^0.8.20;\n\nimport \"@openzeppelin/contracts/token/ERC20/ERC20.sol\";\n\ncontract TestUSDC is ERC20 {\n    constructor(address account) ERC20(\"USD Coin Test\", \"USDC*\") {\n        _mint(account, 10000000000000); // 1 million USDC* with 6 decimals\n    }\n\n    function mint(uint256 amount) public {\n        _mint(_msgSender(), amount);\n    }\n\n    function decimals() public view override returns (uint8) {\n        return 6;\n    }\n}\n\ncontract TestDAI is ERC20 {\n    constructor(address account) ERC20(\"Dai Stablecoin Test\", \"DAI*\") {\n        _mint(account, 10000000000000); // Adjust the amount based on decimals\n    }\n\n    function mint(uint256 amount) public {\n        _mint(_msgSender(), amount);\n    }\n\n    function decimals() public view override returns (uint8) {\n        return 18; \n    }\n}\n\ncontract SimpleStorage {\n    uint public storedData;\n\n    function set(uint x) public {\n        storedData = x;\n    }\n}",
  "sourcePath": "/Users/jake/Development/Cooperativ/Syndicate/testStablecoins/contracts/FakeStables.sol",
  "compiler": {
    "name": "solc",
    "version": "0.8.20+commit.a1b79de6.Emscripten.clang"
  },
  "schemaVersion": "3.4.16",
  "updatedAt": "2023-12-18T20:45:15.835Z",
  "devdoc": {
    "kind": "dev",
    "methods": {},
    "version": 1
  },
  "userdoc": {
    "kind": "user",
    "methods": {},
    "version": 1
  }
}