{
  "contractName": "TestDAI",
  "abi": [
    {
      "inputs": [
        {
          "internalType": "address",
          "name": "account",
          "type": "address"
        }
      ],
      "stateMutability": "nonpayable",
      "type": "constructor"
    },
    {
      "inputs": [
        {
          "internalType": "address",
          "name": "spender",
          "type": "address"
        },
        {
          "internalType": "uint256",
          "name": "allowance",
          "type": "uint256"
        },
        {
          "internalType": "uint256",
          "name": "needed",
          "type": "uint256"
        }
      ],
      "name": "ERC20InsufficientAllowance",
      "type": "error"
    },
    {
      "inputs": [
        {
          "internalType": "address",
          "name": "sender",
          "type": "address"
        },
        {
          "internalType": "uint256",
          "name": "balance",
          "type": "uint256"
        },
        {
          "internalType": "uint256",
          "name": "needed",
          "type": "uint256"
        }
      ],
      "name": "ERC20InsufficientBalance",
      "type": "error"
    },
    {
      "inputs": [
        {
          "internalType": "address",
          "name": "approver",
          "type": "address"
        }
      ],
      "name": "ERC20InvalidApprover",
      "type": "error"
    },
    {
      "inputs": [
        {
          "internalType": "address",
          "name": "receiver",
          "type": "address"
        }
      ],
      "name": "ERC20InvalidReceiver",
      "type": "error"
    },
    {
      "inputs": [
        {
          "internalType": "address",
          "name": "sender",
          "type": "address"
        }
      ],
      "name": "ERC20InvalidSender",
      "type": "error"
    },
    {
      "inputs": [
        {
          "internalType": "address",
          "name": "spender",
          "type": "address"
        }
      ],
      "name": "ERC20InvalidSpender",
      "type": "error"
    },
    {
      "anonymous": false,
      "inputs": [
        {
          "indexed": true,
          "internalType": "address",
          "name": "owner",
          "type": "address"
        },
        {
          "indexed": true,
          "internalType": "address",
          "name": "spender",
          "type": "address"
        },
        {
          "indexed": false,
          "internalType": "uint256",
          "name": "value",
          "type": "uint256"
        }
      ],
      "name": "Approval",
      "type": "event"
    },
    {
      "anonymous": false,
      "inputs": [
        {
          "indexed": true,
          "internalType": "address",
          "name": "from",
          "type": "address"
        },
        {
          "indexed": true,
          "internalType": "address",
          "name": "to",
          "type": "address"
        },
        {
          "indexed": false,
          "internalType": "uint256",
          "name": "value",
          "type": "uint256"
        }
      ],
      "name": "Transfer",
      "type": "event"
    },
    {
      "inputs": [
        {
          "internalType": "address",
          "name": "owner",
          "type": "address"
        },
        {
          "internalType": "address",
          "name": "spender",
          "type": "address"
        }
      ],
      "name": "allowance",
      "outputs": [
        {
          "internalType": "uint256",
          "name": "",
          "type": "uint256"
        }
      ],
      "stateMutability": "view",
      "type": "function"
    },
    {
      "inputs": [
        {
          "internalType": "address",
          "name": "spender",
          "type": "address"
        },
        {
          "internalType": "uint256",
          "name": "value",
          "type": "uint256"
        }
      ],
      "name": "approve",
      "outputs": [
        {
          "internalType": "bool",
          "name": "",
          "type": "bool"
        }
      ],
      "stateMutability": "nonpayable",
      "type": "function"
    },
    {
      "inputs": [
        {
          "internalType": "address",
          "name": "account",
          "type": "address"
        }
      ],
      "name": "balanceOf",
      "outputs": [
        {
          "internalType": "uint256",
          "name": "",
          "type": "uint256"
        }
      ],
      "stateMutability": "view",
      "type": "function"
    },
    {
      "inputs": [],
      "name": "name",
      "outputs": [
        {
          "internalType": "string",
          "name": "",
          "type": "string"
        }
      ],
      "stateMutability": "view",
      "type": "function"
    },
    {
      "inputs": [],
      "name": "symbol",
      "outputs": [
        {
          "internalType": "string",
          "name": "",
          "type": "string"
        }
      ],
      "stateMutability": "view",
      "type": "function"
    },
    {
      "inputs": [],
      "name": "totalSupply",
      "outputs": [
        {
          "internalType": "uint256",
          "name": "",
          "type": "uint256"
        }
      ],
      "stateMutability": "view",
      "type": "function"
    },
    {
      "inputs": [
        {
          "internalType": "address",
          "name": "to",
          "type": "address"
        },
        {
          "internalType": "uint256",
          "name": "value",
          "type": "uint256"
        }
      ],
      "name": "transfer",
      "outputs": [
        {
          "internalType": "bool",
          "name": "",
          "type": "bool"
        }
      ],
      "stateMutability": "nonpayable",
      "type": "function"
    },
    {
      "inputs": [
        {
          "internalType": "address",
          "name": "from",
          "type": "address"
        },
        {
          "internalType": "address",
          "name": "to",
          "type": "address"
        },
        {
          "internalType": "uint256",
          "name": "value",
          "type": "uint256"
        }
      ],
      "name": "transferFrom",
      "outputs": [
        {
          "internalType": "bool",
          "name": "",
          "type": "bool"
        }
      ],
      "stateMutability": "nonpayable",
      "type": "function"
    },
    {
      "inputs": [
        {
          "internalType": "uint256",
          "name": "amount",
          "type": "uint256"
        }
      ],
      "name": "mint",
      "outputs": [],
      "stateMutability": "nonpayable",
      "type": "function"
    },
    {
      "inputs": [],
      "name": "decimals",
      "outputs": [
        {
          "internalType": "uint8",
          "name": "",
          "type": "uint8"
        }
      ],
      "stateMutability": "view",
      "type": "function"
    }
  ],
  "bytecode": "0x60806040523480156200001157600080fd5b50604051620017f4380380620017f483398181016040528101906200003791906200040f565b6040518060400160405280601381526020017f44616920537461626c65636f696e2054657374000000000000000000000000008152506040518060400160405280600481526020017f4441492a000000000000000000000000000000000000000000000000000000008152508160039081620000b49190620006bb565b508060049081620000c69190620006bb565b505050620000e1816509184e72a000620000e860201b60201c565b50620008a5565b600073ffffffffffffffffffffffffffffffffffffffff168273ffffffffffffffffffffffffffffffffffffffff16036200015d5760006040517fec442f05000000000000000000000000000000000000000000000000000000008152600401620001549190620007b3565b60405180910390fd5b62000171600083836200017560201b60201c565b5050565b600073ffffffffffffffffffffffffffffffffffffffff168373ffffffffffffffffffffffffffffffffffffffff1603620001cb578060026000828254620001be9190620007ff565b92505081905550620002a1565b60008060008573ffffffffffffffffffffffffffffffffffffffff1673ffffffffffffffffffffffffffffffffffffffff168152602001908152602001600020549050818110156200025a578381836040517fe450d38c00000000000000000000000000000000000000000000000000000000815260040162000251939291906200084b565b60405180910390fd5b8181036000808673ffffffffffffffffffffffffffffffffffffffff1673ffffffffffffffffffffffffffffffffffffffff16815260200190815260200160002081905550505b600073ffffffffffffffffffffffffffffffffffffffff168273ffffffffffffffffffffffffffffffffffffffff1603620002ec578060026000828254039250508190555062000339565b806000808473ffffffffffffffffffffffffffffffffffffffff1673ffffffffffffffffffffffffffffffffffffffff168152602001908152602001600020600082825401925050819055505b8173ffffffffffffffffffffffffffffffffffffffff168373ffffffffffffffffffffffffffffffffffffffff167fddf252ad1be2c89b69c2b068fc378daa952ba7f163c4a11628f55a4df523b3ef8360405162000398919062000888565b60405180910390a3505050565b600080fd5b600073ffffffffffffffffffffffffffffffffffffffff82169050919050565b6000620003d782620003aa565b9050919050565b620003e981620003ca565b8114620003f557600080fd5b50565b6000815190506200040981620003de565b92915050565b600060208284031215620004285762000427620003a5565b5b60006200043884828501620003f8565b91505092915050565b600081519050919050565b7f4e487b7100000000000000000000000000000000000000000000000000000000600052604160045260246000fd5b7f4e487b7100000000000000000000000000000000000000000000000000000000600052602260045260246000fd5b60006002820490506001821680620004c357607f821691505b602082108103620004d957620004d86200047b565b5b50919050565b60008190508160005260206000209050919050565b60006020601f8301049050919050565b600082821b905092915050565b600060088302620005437fffffffffffffffffffffffffffffffffffffffffffffffffffffffffffffffff8262000504565b6200054f868362000504565b95508019841693508086168417925050509392505050565b6000819050919050565b6000819050919050565b60006200059c62000596620005908462000567565b62000571565b62000567565b9050919050565b6000819050919050565b620005b8836200057b565b620005d0620005c782620005a3565b84845462000511565b825550505050565b600090565b620005e7620005d8565b620005f4818484620005ad565b505050565b5b818110156200061c5762000610600082620005dd565b600181019050620005fa565b5050565b601f8211156200066b576200063581620004df565b6200064084620004f4565b8101602085101562000650578190505b620006686200065f85620004f4565b830182620005f9565b50505b505050565b600082821c905092915050565b6000620006906000198460080262000670565b1980831691505092915050565b6000620006ab83836200067d565b9150826002028217905092915050565b620006c68262000441565b67ffffffffffffffff811115620006e257620006e16200044c565b5b620006ee8254620004aa565b620006fb82828562000620565b600060209050601f8311600181146200073357600084156200071e578287015190505b6200072a85826200069d565b8655506200079a565b601f1984166200074386620004df565b60005b828110156200076d5784890151825560018201915060208501945060208101905062000746565b868310156200078d578489015162000789601f8916826200067d565b8355505b6001600288020188555050505b505050505050565b620007ad81620003ca565b82525050565b6000602082019050620007ca6000830184620007a2565b92915050565b7f4e487b7100000000000000000000000000000000000000000000000000000000600052601160045260246000fd5b60006200080c8262000567565b9150620008198362000567565b9250828201905080821115620008345762000833620007d0565b5b92915050565b620008458162000567565b82525050565b6000606082019050620008626000830186620007a2565b6200087160208301856200083a565b6200088060408301846200083a565b949350505050565b60006020820190506200089f60008301846200083a565b92915050565b610f3f80620008b56000396000f3fe608060405234801561001057600080fd5b506004361061009e5760003560e01c806370a082311161006657806370a082311461015d57806395d89b411461018d578063a0712d68146101ab578063a9059cbb146101c7578063dd62ed3e146101f75761009e565b806306fdde03146100a3578063095ea7b3146100c157806318160ddd146100f157806323b872dd1461010f578063313ce5671461013f575b600080fd5b6100ab610227565b6040516100b89190610b66565b60405180910390f35b6100db60048036038101906100d69190610c21565b6102b9565b6040516100e89190610c7c565b60405180910390f35b6100f96102dc565b6040516101069190610ca6565b60405180910390f35b61012960048036038101906101249190610cc1565b6102e6565b6040516101369190610c7c565b60405180910390f35b610147610315565b6040516101549190610d30565b60405180910390f35b61017760048036038101906101729190610d4b565b61031e565b6040516101849190610ca6565b60405180910390f35b610195610366565b6040516101a29190610b66565b60405180910390f35b6101c560048036038101906101c09190610d78565b6103f8565b005b6101e160048036038101906101dc9190610c21565b61040c565b6040516101ee9190610c7c565b60405180910390f35b610211600480360381019061020c9190610da5565b61042f565b60405161021e9190610ca6565b60405180910390f35b60606003805461023690610e14565b80601f016020809104026020016040519081016040528092919081815260200182805461026290610e14565b80156102af5780601f10610284576101008083540402835291602001916102af565b820191906000526020600020905b81548152906001019060200180831161029257829003601f168201915b5050505050905090565b6000806102c46104b6565b90506102d18185856104be565b600191505092915050565b6000600254905090565b6000806102f16104b6565b90506102fe8582856104d0565b610309858585610564565b60019150509392505050565b60006012905090565b60008060008373ffffffffffffffffffffffffffffffffffffffff1673ffffffffffffffffffffffffffffffffffffffff168152602001908152602001600020549050919050565b60606004805461037590610e14565b80601f01602080910402602001604051908101604052809291908181526020018280546103a190610e14565b80156103ee5780601f106103c3576101008083540402835291602001916103ee565b820191906000526020600020905b8154815290600101906020018083116103d157829003601f168201915b5050505050905090565b6104096104036104b6565b82610658565b50565b6000806104176104b6565b9050610424818585610564565b600191505092915050565b6000600160008473ffffffffffffffffffffffffffffffffffffffff1673ffffffffffffffffffffffffffffffffffffffff16815260200190815260200160002060008373ffffffffffffffffffffffffffffffffffffffff1673ffffffffffffffffffffffffffffffffffffffff16815260200190815260200160002054905092915050565b600033905090565b6104cb83838360016106da565b505050565b60006104dc848461042f565b90507fffffffffffffffffffffffffffffffffffffffffffffffffffffffffffffffff811461055e578181101561054e578281836040517ffb8f41b200000000000000000000000000000000000000000000000000000000815260040161054593929190610e54565b60405180910390fd5b61055d848484840360006106da565b5b50505050565b600073ffffffffffffffffffffffffffffffffffffffff168373ffffffffffffffffffffffffffffffffffffffff16036105d65760006040517f96c6fd1e0000000000000000000000000000000000000000000000000000000081526004016105cd9190610e8b565b60405180910390fd5b600073ffffffffffffffffffffffffffffffffffffffff168273ffffffffffffffffffffffffffffffffffffffff16036106485760006040517fec442f0500000000000000000000000000000000000000000000000000000000815260040161063f9190610e8b565b60405180910390fd5b6106538383836108b1565b505050565b600073ffffffffffffffffffffffffffffffffffffffff168273ffffffffffffffffffffffffffffffffffffffff16036106ca5760006040517fec442f050000000000000000000000000000000000000000000000000000000081526004016106c19190610e8b565b60405180910390fd5b6106d6600083836108b1565b5050565b600073ffffffffffffffffffffffffffffffffffffffff168473ffffffffffffffffffffffffffffffffffffffff160361074c5760006040517fe602df050000000000000000000000000000000000000000000000000000000081526004016107439190610e8b565b60405180910390fd5b600073ffffffffffffffffffffffffffffffffffffffff168373ffffffffffffffffffffffffffffffffffffffff16036107be5760006040517f94280d620000000000000000000000000000000000000000000000000000000081526004016107b59190610e8b565b60405180910390fd5b81600160008673ffffffffffffffffffffffffffffffffffffffff1673ffffffffffffffffffffffffffffffffffffffff16815260200190815260200160002060008573ffffffffffffffffffffffffffffffffffffffff1673ffffffffffffffffffffffffffffffffffffffff1681526020019081526020016000208190555080156108ab578273ffffffffffffffffffffffffffffffffffffffff168473ffffffffffffffffffffffffffffffffffffffff167f8c5be1e5ebec7d5bd14f71427d1e84f3dd0314c0f7b2291e5b200ac8c7c3b925846040516108a29190610ca6565b60405180910390a35b50505050565b600073ffffffffffffffffffffffffffffffffffffffff168373ffffffffffffffffffffffffffffffffffffffff16036109035780600260008282546108f79190610ed5565b925050819055506109d6565b60008060008573ffffffffffffffffffffffffffffffffffffffff1673ffffffffffffffffffffffffffffffffffffffff1681526020019081526020016000205490508181101561098f578381836040517fe450d38c00000000000000000000000000000000000000000000000000000000815260040161098693929190610e54565b60405180910390fd5b8181036000808673ffffffffffffffffffffffffffffffffffffffff1673ffffffffffffffffffffffffffffffffffffffff16815260200190815260200160002081905550505b600073ffffffffffffffffffffffffffffffffffffffff168273ffffffffffffffffffffffffffffffffffffffff1603610a1f5780600260008282540392505081905550610a6c565b806000808473ffffffffffffffffffffffffffffffffffffffff1673ffffffffffffffffffffffffffffffffffffffff168152602001908152602001600020600082825401925050819055505b8173ffffffffffffffffffffffffffffffffffffffff168373ffffffffffffffffffffffffffffffffffffffff167fddf252ad1be2c89b69c2b068fc378daa952ba7f163c4a11628f55a4df523b3ef83604051610ac99190610ca6565b60405180910390a3505050565b600081519050919050565b600082825260208201905092915050565b60005b83811015610b10578082015181840152602081019050610af5565b60008484015250505050565b6000601f19601f8301169050919050565b6000610b3882610ad6565b610b428185610ae1565b9350610b52818560208601610af2565b610b5b81610b1c565b840191505092915050565b60006020820190508181036000830152610b808184610b2d565b905092915050565b600080fd5b600073ffffffffffffffffffffffffffffffffffffffff82169050919050565b6000610bb882610b8d565b9050919050565b610bc881610bad565b8114610bd357600080fd5b50565b600081359050610be581610bbf565b92915050565b6000819050919050565b610bfe81610beb565b8114610c0957600080fd5b50565b600081359050610c1b81610bf5565b92915050565b60008060408385031215610c3857610c37610b88565b5b6000610c4685828601610bd6565b9250506020610c5785828601610c0c565b9150509250929050565b60008115159050919050565b610c7681610c61565b82525050565b6000602082019050610c916000830184610c6d565b92915050565b610ca081610beb565b82525050565b6000602082019050610cbb6000830184610c97565b92915050565b600080600060608486031215610cda57610cd9610b88565b5b6000610ce886828701610bd6565b9350506020610cf986828701610bd6565b9250506040610d0a86828701610c0c565b9150509250925092565b600060ff82169050919050565b610d2a81610d14565b82525050565b6000602082019050610d456000830184610d21565b92915050565b600060208284031215610d6157610d60610b88565b5b6000610d6f84828501610bd6565b91505092915050565b600060208284031215610d8e57610d8d610b88565b5b6000610d9c84828501610c0c565b91505092915050565b60008060408385031215610dbc57610dbb610b88565b5b6000610dca85828601610bd6565b9250506020610ddb85828601610bd6565b9150509250929050565b7f4e487b7100000000000000000000000000000000000000000000000000000000600052602260045260246000fd5b60006002820490506001821680610e2c57607f821691505b602082108103610e3f57610e3e610de5565b5b50919050565b610e4e81610bad565b82525050565b6000606082019050610e696000830186610e45565b610e766020830185610c97565b610e836040830184610c97565b949350505050565b6000602082019050610ea06000830184610e45565b92915050565b7f4e487b7100000000000000000000000000000000000000000000000000000000600052601160045260246000fd5b6000610ee082610beb565b9150610eeb83610beb565b9250828201905080821115610f0357610f02610ea6565b5b9291505056fea2646970667358221220e6e9d71296bc8f53f80f3323668d3c03b75098595430d954c4bd71c5e104fdec64736f6c63430008140033",
  "immutableReferences": {},
  "source": "// SPDX-License-Identifier: MIT\npragma solidity ^0.8.20;\n\nimport \"@openzeppelin/contracts/token/ERC20/ERC20.sol\";\n\ncontract TestUSDC is ERC20 {\n    constructor(address account) ERC20(\"USD Coin Test\", \"USDC*\") {\n        _mint(account, 10000000000000); // 1 million USDC* with 6 decimals\n    }\n\n    function mint(uint256 amount) public {\n        _mint(_msgSender(), amount);\n    }\n\n    function decimals() public view override returns (uint8) {\n        return 6;\n    }\n}\n\ncontract TestDAI is ERC20 {\n    constructor(address account) ERC20(\"Dai Stablecoin Test\", \"DAI*\") {\n        _mint(account, 10000000000000); // Adjust the amount based on decimals\n    }\n\n    function mint(uint256 amount) public {\n        _mint(_msgSender(), amount);\n    }\n\n    function decimals() public view override returns (uint8) {\n        return 18; \n    }\n}\n\ncontract SimpleStorage {\n    uint public storedData;\n\n    function set(uint x) public {\n        storedData = x;\n    }\n}",
  "sourcePath": "/Users/jake/Development/Cooperativ/Syndicate/testStablecoins/contracts/FakeStables.sol",
  "compiler": {
    "name": "solc",
    "version": "0.8.20+commit.a1b79de6.Emscripten.clang"
  },
  "schemaVersion": "3.4.16",
  "updatedAt": "2023-12-18T20:45:15.842Z",
  "devdoc": {
    "errors": {
      "ERC20InsufficientAllowance(address,uint256,uint256)": [
        {
          "details": "Indicates a failure with the `spender`s `allowance`. Used in transfers.",
          "params": {
            "allowance": "Amount of tokens a `spender` is allowed to operate with.",
            "needed": "Minimum amount required to perform a transfer.",
            "spender": "Address that may be allowed to operate on tokens without being their owner."
          }
        }
      ],
      "ERC20InsufficientBalance(address,uint256,uint256)": [
        {
          "details": "Indicates an error related to the current `balance` of a `sender`. Used in transfers.",
          "params": {
            "balance": "Current balance for the interacting account.",
            "needed": "Minimum amount required to perform a transfer.",
            "sender": "Address whose tokens are being transferred."
          }
        }
      ],
      "ERC20InvalidApprover(address)": [
        {
          "details": "Indicates a failure with the `approver` of a token to be approved. Used in approvals.",
          "params": {
            "approver": "Address initiating an approval operation."
          }
        }
      ],
      "ERC20InvalidReceiver(address)": [
        {
          "details": "Indicates a failure with the token `receiver`. Used in transfers.",
          "params": {
            "receiver": "Address to which tokens are being transferred."
          }
        }
      ],
      "ERC20InvalidSender(address)": [
        {
          "details": "Indicates a failure with the token `sender`. Used in transfers.",
          "params": {
            "sender": "Address whose tokens are being transferred."
          }
        }
      ],
      "ERC20InvalidSpender(address)": [
        {
          "details": "Indicates a failure with the `spender` to be approved. Used in approvals.",
          "params": {
            "spender": "Address that may be allowed to operate on tokens without being their owner."
          }
        }
      ]
    },
    "events": {
      "Approval(address,address,uint256)": {
        "details": "Emitted when the allowance of a `spender` for an `owner` is set by a call to {approve}. `value` is the new allowance."
      },
      "Transfer(address,address,uint256)": {
        "details": "Emitted when `value` tokens are moved from one account (`from`) to another (`to`). Note that `value` may be zero."
      }
    },
    "kind": "dev",
    "methods": {
      "allowance(address,address)": {
        "details": "See {IERC20-allowance}."
      },
      "approve(address,uint256)": {
        "details": "See {IERC20-approve}. NOTE: If `value` is the maximum `uint256`, the allowance is not updated on `transferFrom`. This is semantically equivalent to an infinite approval. Requirements: - `spender` cannot be the zero address."
      },
      "balanceOf(address)": {
        "details": "See {IERC20-balanceOf}."
      },
      "decimals()": {
        "details": "Returns the number of decimals used to get its user representation. For example, if `decimals` equals `2`, a balance of `505` tokens should be displayed to a user as `5.05` (`505 / 10 ** 2`). Tokens usually opt for a value of 18, imitating the relationship between Ether and Wei. This is the default value returned by this function, unless it's overridden. NOTE: This information is only used for _display_ purposes: it in no way affects any of the arithmetic of the contract, including {IERC20-balanceOf} and {IERC20-transfer}."
      },
      "name()": {
        "details": "Returns the name of the token."
      },
      "symbol()": {
        "details": "Returns the symbol of the token, usually a shorter version of the name."
      },
      "totalSupply()": {
        "details": "See {IERC20-totalSupply}."
      },
      "transfer(address,uint256)": {
        "details": "See {IERC20-transfer}. Requirements: - `to` cannot be the zero address. - the caller must have a balance of at least `value`."
      },
      "transferFrom(address,address,uint256)": {
        "details": "See {IERC20-transferFrom}. Emits an {Approval} event indicating the updated allowance. This is not required by the EIP. See the note at the beginning of {ERC20}. NOTE: Does not update the allowance if the current allowance is the maximum `uint256`. Requirements: - `from` and `to` cannot be the zero address. - `from` must have a balance of at least `value`. - the caller must have allowance for ``from``'s tokens of at least `value`."
      }
    },
    "version": 1
  },
  "userdoc": {
    "kind": "user",
    "methods": {},
    "version": 1
  }
}